S01700004763634170706C69636174696F6E312E737265635B
S11300000C942A000C943C000C943C000C943C008E
S11300100C943C000C943C000C943C000C943C006C
S11300200C943C000C943C000C943C000C948F0009
S11300300C943C000C943C000C943C000C943C004C
S11300400C943C000C943C000C943C000C943C003C
S11300500C943C0011241FBECFE5D8E0DEBFCDBF19
S113006020E0A0E6B0E001C01D92A436B207E1F79B
S11300700E9404010C94D0020C9400009C012F7087
S11300803078332334F421503109206F3F6F2F5FD0
S11300903F4F2A3031053CF006969C0112F4215F53
S11300A03F4FC901807F0895809163008F5F8093E3
S11300B063008091630090E00E943E00809363009F
S11300C080916300803651F5109263008091620044
S11300D08F5F809362008091620090E00E943E00F6
S11300E080936200809162008036C1F410926200B5
S11300F0809161008F5F809361008091610090E046
S11301000E943E008093610080916100843231F44A
S113011010926100109262001092630008951F9281
S11301200F920FB60F9211242F933F934F935F9327
S11301306F937F938F939F93AF93BF93EF93FF93AB
S113014012BE809160008F5F809360008091600098
S1130150882321F0109260000E945400FF91EF91D7
S1130160BF91AF919F918F917F916F915F914F91CB
S11301703F912F910F900FBE0F901F90189588B349
S11301808F6088BB20E030E0E0E4F0E0822F97B39A
S1130190907897BB67B3AF01022E02C0559547957F
S11301A00A94E2F7462B47BBB39B0CC0B29B06C034
S11301B0B19B06C0B0990FC093E005C091E003C0A5
S11301C092E001C090E08F5F292F220F920F890FD8
S11301D08B3041F008952F5F3F4F23303105B1F646
S11301E08FEF089580E008951BBA15BA12BA96E00D
S11301F088B3805888BBEDE3F9E43197F1F700C088
S113020000009150A9F70895CF93DF93CDB7DEB7DF
S1130210AC970FB6F894DEBF0FBECDBF8FEF8ABB8D
S113022084BB81BBBF9A84E1FE013196DF01282F94
S11302301D922A95E9F77496DF011D928A95E9F7D4
S113024081E08D8B92E09E8B93E09F8B24E0288F3E
S1130250898F9A8F95E09B8F97E09C8F9FE099A759
S11302609AA79BA79CA789BF12BE83BF7894C12C71
S11302706894FF24F1F8A12C0F2EFFE05F2EF02DDF
S1130280612C312CDD24D3940F2EFFE0EF2EF02DC2
S11302908E01035D1F4FB12C0F2EFDEC9F2EF02D10
S11302A00F2EFCEA7F2EF02D0F2EFCEC8F2EF02D5E
S11302B004C03B2C02C0582E3D2CBFE05B1209C089
S11302C08091630082BB8091620085BB8091610054
S11302D08BBB0E94BF008F3F09F01AC1EACFC11047
S11302E005C08C3009F057C18E2D74C08C3009F4D0
S11302F013C18A3049F0E9E2F0E0EC0FFD1FE60D8E
S1130300F11D8083639466C0E1E0CE16D9F18E2D91
S113031061C0F1E0AF1619F0F11011C00AC10E94DA
S1130320F40088B318BA2FE936E881E02150304050
S11303308040E1F700C00000CB2CAB2CFAC0FE01DA
S1130340319680E08F5F8BBB75BA82BA9FE3ADE0D4
S1130350B3E09150A040B040E1F700C000009081AC
S113036092BB918195BB92819BBB2FE33DE093E0CF
S1130370215030409040E1F700C000003496F8125C
S1130380E1CFD7C0A4E0AF15D8F0BFE9E6E8F1E0CB
S1130390B150E040F040E1F700C0000022E06216F6
S11303A0E1F1261528F031E0631609F4BBC054C00E
S11303B093E06916E9F1A4E06A1609F446C04CC05A
S11303C0BFE9E6E8F1E0B150E040F040E1F700C0F9
S11303D000008E2D22E0621619F1261520F031E07E
S11303E0631641F03CC093E0691629F1A4E06A1653
S11303F079F135C01BBA15BAB1E0AB1205C09DEA5C
S113040092BB582EAD2C02C092BA582E852D8295DF
S1130410807F8BBB662463949FC0AD2C01C08E2D5E
S11304209BB3982B9BBB582E6894662461F894C0A8
S1130430AD2C01C08E2D982F9295907F95BB582E90
S11304400F2EF3E06F2EF02D87C0AD2C01C08E2D42
S113045095B3892B85BB06C0AD2C01C08E2DE4E07D
S11304606E1229CFF1E0AF1619F0F1102AC036C090
S1130470DE019996EF2DF0E0EE0FFF1FEE0FFF1F48
S113048085E190E08C0F9D1F8E0F9F1F41E050E08F
S11304904C0F5D1F4E0F5F1F2D91FC012193CF0167
S11304A0FA011192AF01A017B107B1F7F394AB2C85
S11304B01EC09D918191981367C00E171F07C9F73D
S11304C04DC059A59E012B5E3F4F40E0D9018C9150
S11304D085135AC01196FE01BA96EBCFB1E04B12C8
S11304E004C0C79ACD2C4D2C02C00E94F400EFE941
S11304F0F6E821E0E150F0402040E1F700C00000C0
S1130500E9A6EAA6EBA6ECA65E2C612C3D2CD5CE82
S1130510332009F4E4CED1CE31E0C31609F4F9CE88
S11305208E2D58CF1BBA15BA6ACF1BBA15BA8E2DA9
S11305306BCF82E0681609F472CF861520F091E043
S1130540691699F38BCFA3E06A1609F473CFB4E06C
S11305506B1609F47CCF82CF3D2CAFCE8091630023
S1130560E1E0F0E0EC0FFD1F24E0429FE00DF11DFF
S11305701124808380916200818380916100828351
S113058083818F5F8383ADCF4F5F2C5F3F4FF41226
S11305909DCF4B2CAACF8A3009F0ADCE8E2D1ACF29
S10705A0F894FFCFF9
S9030000FC
